{
  "_format": "hh-sol-artifact-1",
  "contractName": "Counter",
  "sourceName": "contracts/Counter.sol",
  "abi": [
    {
      "inputs": [
        {
          "internalType": "uint256",
          "name": "x",
          "type": "uint256"
        }
      ],
      "stateMutability": "nonpayable",
      "type": "constructor"
    },
    {
      "inputs": [
        {
          "internalType": "uint256",
          "name": "x",
          "type": "uint256"
        }
      ],
      "name": "add",
      "outputs": [],
      "stateMutability": "nonpayable",
      "type": "function"
    },
    {
      "inputs": [],
      "name": "count",
      "outputs": [],
      "stateMutability": "nonpayable",
      "type": "function"
    },
    {
      "inputs": [],
      "name": "counter",
      "outputs": [
        {
          "internalType": "uint256",
          "name": "",
          "type": "uint256"
        }
      ],
      "stateMutability": "view",
      "type": "function"
    }
  ],
  "bytecode": "0x608060405234801561001057600080fd5b506040516104bf3803806104bf83398181016040528101906100329190610054565b806000819055505061009e565b60008151905061004e81610087565b92915050565b60006020828403121561006657600080fd5b60006100748482850161003f565b91505092915050565b6000819050919050565b6100908161007d565b811461009b57600080fd5b50565b610412806100ad6000396000f3fe608060405234801561001057600080fd5b50600436106100415760003560e01c806306661abd146100465780631003e2d21461005057806361bc221a1461006c575b600080fd5b61004e61008a565b005b61006a6004803603810190610065919061021a565b6100e2565b005b61007461013a565b60405161008191906102bb565b60405180910390f35b600160005461009991906102f2565b6000819055506100e06040518060400160405280600d81526020017f6375727220636f756e7465723a00000000000000000000000000000000000000815250600054610140565b565b806000546100f091906102f2565b6000819055506101376040518060400160405280600d81526020017f6375727220636f756e7465723a00000000000000000000000000000000000000815250600054610140565b50565b60005481565b6101d8828260405160240161015692919061028b565b6040516020818303038152906040527f9710a9d0000000000000000000000000000000000000000000000000000000007bffffffffffffffffffffffffffffffffffffffffffffffffffffffff19166020820180517bffffffffffffffffffffffffffffffffffffffffffffffffffffffff83818316178352505050506101dc565b5050565b60008151905060006a636f6e736f6c652e6c6f679050602083016000808483855afa5050505050565b600081359050610214816103c5565b92915050565b60006020828403121561022c57600080fd5b600061023a84828501610205565b91505092915050565b600061024e826102d6565b61025881856102e1565b9350610268818560208601610352565b610271816103b4565b840191505092915050565b61028581610348565b82525050565b600060408201905081810360008301526102a58185610243565b90506102b4602083018461027c565b9392505050565b60006020820190506102d0600083018461027c565b92915050565b600081519050919050565b600082825260208201905092915050565b60006102fd82610348565b915061030883610348565b9250827fffffffffffffffffffffffffffffffffffffffffffffffffffffffffffffffff0382111561033d5761033c610385565b5b828201905092915050565b6000819050919050565b60005b83811015610370578082015181840152602081019050610355565b8381111561037f576000848401525b50505050565b7f4e487b7100000000000000000000000000000000000000000000000000000000600052601160045260246000fd5b6000601f19601f8301169050919050565b6103ce81610348565b81146103d957600080fd5b5056fea2646970667358221220e8394f1092d0e1be8918003e031641e538bcfec9227da784479df6a0cd668ad564736f6c63430008040033",
  "linkReferences": {},
  "deployedLinkReferences": {}
}